{"abi":[{"type":"constructor","inputs":[],"stateMutability":"nonpayable"},{"type":"function","name":"ENTRY_POINT","inputs":[],"outputs":[{"name":"","type":"address","internalType":"address"}],"stateMutability":"view"},{"type":"function","name":"allWallets","inputs":[{"name":"","type":"uint256","internalType":"uint256"}],"outputs":[{"name":"","type":"address","internalType":"address"}],"stateMutability":"view"},{"type":"function","name":"createWallet","inputs":[],"outputs":[{"name":"wallet","type":"address","internalType":"address"}],"stateMutability":"nonpayable"},{"type":"function","name":"createWallet","inputs":[{"name":"user","type":"address","internalType":"address"}],"outputs":[{"name":"wallet","type":"address","internalType":"address"}],"stateMutability":"nonpayable"},{"type":"function","name":"createWalletDeterministic","inputs":[{"name":"salt","type":"uint256","internalType":"uint256"}],"outputs":[{"name":"wallet","type":"address","internalType":"address"}],"stateMutability":"nonpayable"},{"type":"function","name":"createWalletDeterministic","inputs":[{"name":"user","type":"address","internalType":"address"},{"name":"salt","type":"uint256","internalType":"uint256"}],"outputs":[{"name":"wallet","type":"address","internalType":"address"}],"stateMutability":"nonpayable"},{"type":"function","name":"getOwner","inputs":[{"name":"wallet","type":"address","internalType":"address"}],"outputs":[{"name":"","type":"address","internalType":"address"}],"stateMutability":"view"},{"type":"function","name":"getStats","inputs":[],"outputs":[{"name":"totalWallets","type":"uint256","internalType":"uint256"},{"name":"contractBalance","type":"uint256","internalType":"uint256"}],"stateMutability":"view"},{"type":"function","name":"getUserWallet","inputs":[{"name":"user","type":"address","internalType":"address"}],"outputs":[{"name":"","type":"address","internalType":"address"}],"stateMutability":"view"},{"type":"function","name":"getWallet","inputs":[{"name":"user","type":"address","internalType":"address"}],"outputs":[{"name":"","type":"address","internalType":"address"}],"stateMutability":"view"},{"type":"function","name":"getWalletAddress","inputs":[{"name":"salt","type":"uint256","internalType":"uint256"}],"outputs":[{"name":"","type":"address","internalType":"address"}],"stateMutability":"view"},{"type":"function","name":"getWallets","inputs":[{"name":"offset","type":"uint256","internalType":"uint256"},{"name":"limit","type":"uint256","internalType":"uint256"}],"outputs":[{"name":"wallets","type":"address[]","internalType":"address[]"},{"name":"total","type":"uint256","internalType":"uint256"}],"stateMutability":"view"},{"type":"function","name":"hasWallet","inputs":[{"name":"user","type":"address","internalType":"address"}],"outputs":[{"name":"","type":"bool","internalType":"bool"}],"stateMutability":"view"},{"type":"function","name":"owner","inputs":[],"outputs":[{"name":"","type":"address","internalType":"address"}],"stateMutability":"view"},{"type":"function","name":"registerWallet","inputs":[{"name":"user","type":"address","internalType":"address"},{"name":"wallet","type":"address","internalType":"address"}],"outputs":[],"stateMutability":"nonpayable"},{"type":"function","name":"renounceOwnership","inputs":[],"outputs":[],"stateMutability":"nonpayable"},{"type":"function","name":"totalWalletsCreated","inputs":[],"outputs":[{"name":"","type":"uint256","internalType":"uint256"}],"stateMutability":"view"},{"type":"function","name":"transferOwnership","inputs":[{"name":"newOwner","type":"address","internalType":"address"}],"outputs":[],"stateMutability":"nonpayable"},{"type":"function","name":"userWallets","inputs":[{"name":"","type":"address","internalType":"address"}],"outputs":[{"name":"","type":"address","internalType":"address"}],"stateMutability":"view"},{"type":"function","name":"walletOwners","inputs":[{"name":"","type":"address","internalType":"address"}],"outputs":[{"name":"","type":"address","internalType":"address"}],"stateMutability":"view"},{"type":"event","name":"OwnershipTransferred","inputs":[{"name":"previousOwner","type":"address","indexed":true,"internalType":"address"},{"name":"newOwner","type":"address","indexed":true,"internalType":"address"}],"anonymous":false},{"type":"event","name":"WalletCreated","inputs":[{"name":"user","type":"address","indexed":true,"internalType":"address"},{"name":"wallet","type":"address","indexed":true,"internalType":"address"},{"name":"salt","type":"uint256","indexed":false,"internalType":"uint256"}],"anonymous":false},{"type":"event","name":"WalletRegistered","inputs":[{"name":"user","type":"address","indexed":true,"internalType":"address"},{"name":"wallet","type":"address","indexed":true,"internalType":"address"}],"anonymous":false},{"type":"error","name":"Create2EmptyBytecode","inputs":[]},{"type":"error","name":"FailedDeployment","inputs":[]},{"type":"error","name":"InsufficientBalance","inputs":[{"name":"balance","type":"uint256","internalType":"uint256"},{"name":"needed","type":"uint256","internalType":"uint256"}]},{"type":"error","name":"OwnableInvalidOwner","inputs":[{"name":"owner","type":"address","internalType":"address"}]},{"type":"error","name":"OwnableUnauthorizedAccount","inputs":[{"name":"account","type":"address","internalType":"address"}]},{"type":"error","name":"ReentrancyGuardReentrantCall","inputs":[]}],"bytecode":{"object":"0x6080806040523460755733156062575f8054336001600160a01b0319821681178355916001600160a01b03909116907f8be0079c531659141344cd1fd0a4f28419497f9722a3daafe3b4186f6b6457e09080a3600180556140bd908161007a8239f35b631e4fbdf760e01b5f525f60045260245ffd5b5f80fdfe60806040526004361015610011575f80fd5b5f3560e01c806304d0a6471461032557806311ebbf24146106ba5780634ce9dde514610645578063619c15571461061e57806362a04fa31461060157806363e6ffdd146105c1578063715018a61461056a57806380dc8b06146105285780638cf8350f146104e65780638da5cb5b146104bf57806394430fa514610491578063967937251461032a5780639ad5479314610325578063a0915de5146102b3578063a8e9379a146100f5578063b054a9e81461022f578063c59d48471461020d578063cb804eae146101be578063f2fde38b146101395763fa544161146100f5575f80fd5b34610135576020366003190112610135576001600160a01b036101166106dd565b165f526003602052602060018060a01b0360405f205416604051908152f35b5f80fd5b34610135576020366003190112610135576101526106dd565b61015a610c48565b6001600160a01b031680156101ab575f80546001600160a01b03198116831782556001600160a01b0316907f8be0079c531659141344cd1fd0a4f28419497f9722a3daafe3b4186f6b6457e09080a3005b631e4fbdf760e01b5f525f60045260245ffd5b346101355760203660031901126101355760206101fb6133f06101e283820161075e565b81815283810191610c9883395190203090600435610c6e565b6040516001600160a01b039091168152f35b34610135575f3660031901126101355760406005544782519182526020820152f35b3461013557602036600319011261013557602061028c61024d6106dd565b610255610983565b6001600160a01b03811661026a8115156108fc565b735ff137d4b0fdcd49dca30c7cf57e578a026d278933036102a2575b506109f5565b600180556040516001600160a01b039091168152f35b6102ad90331461093f565b83610286565b3461013557604036600319011261013557602061028c6102d16106dd565b6102d9610983565b6001600160a01b0381166102ee8115156108fc565b735ff137d4b0fdcd49dca30c7cf57e578a026d27893303610314575b5060243590610ae5565b61031f90331461093f565b8361030a565b6106f3565b34610135576040366003190112610135576103436106dd565b6024356001600160a01b0381169182820361013557610360610c48565b6001600160a01b039081165f818152600260205260409020549092911661044c575f838152600360205260409020546001600160a01b0316610407576103e190825f52600260205260405f20846001600160601b0360a01b825416179055835f52600360205260405f20836001600160601b0360a01b825416179055610892565b7ff3c51abd663c00cbfa5a958e8d688917a1e072399a19c9eb70819641f3b5d8565f80a3005b60405162461bcd60e51b815260206004820152601960248201527f57616c6c657420616c72656164792072656769737465726564000000000000006044820152606490fd5b60405162461bcd60e51b815260206004820152601760248201527f5573657220616c7265616479206861732077616c6c65740000000000000000006044820152606490fd5b34610135575f366003190112610135576020604051735ff137d4b0fdcd49dca30c7cf57e578a026d27898152f35b34610135575f366003190112610135575f546040516001600160a01b039091168152602090f35b34610135576020366003190112610135576004356004548110156101355761050f602091610732565b905460405160039290921b1c6001600160a01b03168152f35b34610135576020366003190112610135576001600160a01b036105496106dd565b165f526002602052602060018060a01b0360405f2054161515604051908152f35b34610135575f36600319011261013557610582610c48565b5f80546001600160a01b0319811682556001600160a01b03167f8be0079c531659141344cd1fd0a4f28419497f9722a3daafe3b4186f6b6457e08280a3005b34610135576020366003190112610135576001600160a01b036105e26106dd565b165f526002602052602060018060a01b0360405f205416604051908152f35b34610135575f366003190112610135576020600554604051908152f35b3461013557602036600319011261013557610637610983565b602061028c60043533610ae5565b34610135576040366003190112610135576106646024356004356107d1565b9060405190604082019260408352815180945260206060840192015f945b80861061069757505082935060208301520390f35b81516001600160a01b031684526001959095019460209384019390910190610682565b34610135575f366003190112610135576106d2610983565b602061028c336109f5565b600435906001600160a01b038216820361013557565b346101355760203660031901126101355761070c6106dd565b60018060a01b03165f526002602052602060018060a01b0360405f205416604051908152f35b60045481101561074a5760045f5260205f2001905f90565b634e487b7160e01b5f52603260045260245ffd5b6040519190601f01601f1916820167ffffffffffffffff81118382101761078457604052565b634e487b7160e01b5f52604160045260245ffd5b67ffffffffffffffff81116107845760051b60200190565b919082039182116107bd57565b634e487b7160e01b5f52601160045260245ffd5b60045492918382101561087b5781018082116107bd57838111610874575b6107f982826107b0565b9161080b61080684610798565b61075e565b9280845261081b601f1991610798565b01366020850137805b828110610832575050509190565b61083b81610732565b905460039190911b1c6001600160a01b03169061085883826107b0565b91855183101561074a57602060019360051b8701015201610824565b50826107ef565b5050610887602061075e565b5f81525f3681379190565b60045468010000000000000000811015610784576001810160045560045481101561074a5760045f527f8a35acfbc15ff81a39ae7d344fd709f28e8600b4aa8c65c6b64bfe7fe36bd19b0180546001600160a01b0319166001600160a01b03909216919091179055565b1561090357565b60405162461bcd60e51b8152602060048201526014602482015273496e76616c69642075736572206164647265737360601b6044820152606490fd5b1561094657565b60405162461bcd60e51b81526020600482015260156024820152740aae6cae440c2c8c8e4cae6e640dad2e6dac2e8c6d605b1b6044820152606490fd5b600260015414610994576002600155565b633ee5aeb560e01b5f5260045ffd5b156109aa57565b60405162461bcd60e51b815260206004820152601560248201527457616c6c657420616c72656164792065786973747360581b6044820152606490fd5b5f1981146107bd5760010190565b6001600160a01b039081165f818152600260205260409020549091610a1b9116156109a3565b6040516133f080820182811067ffffffffffffffff821117610784578291610c98833903905ff08015610ada5760018060a01b03168181925f52600260205260405f2060018060a01b0383166001600160601b0360a01b825416179055815f52600360205260405f20816001600160601b0360a01b825416179055610a9f82610892565b610aaa6005546109e7565b6005557f4459976dae5d173eda0ac09c39b840bed814c9d1e490e8b9ba23148e4b19a83760206040515f8152a390565b6040513d5f823e3d90fd5b6001600160a01b039081165f81815260026020526040902054909291610b0c9116156109a3565b6133f0610b1b6020820161075e565b908082526020820190610c988239610b3882518220309085610c6e565b3b610c0357815115610bf457829151905ff5913d1519831516610ada576001600160a01b038316918215610be55760207f4459976dae5d173eda0ac09c39b840bed814c9d1e490e8b9ba23148e4b19a83791835f526002825260405f20856001600160601b0360a01b825416179055845f526003825260405f20846001600160601b0360a01b825416179055610bcd86610892565b610bd86005546109e7565b600555604051908152a390565b63b06ebf3d60e01b5f5260045ffd5b631328927760e21b5f5260045ffd5b60405162461bcd60e51b815260206004820152601760248201527f57616c6c657420616c7265616479206465706c6f7965640000000000000000006044820152606490fd5b5f546001600160a01b03163303610c5b57565b63118cdaa760e01b5f523360045260245ffd5b91600b92604051926040840152602083015281520160ff8153605590206001600160a01b03169056fe608060405234610030576001805561001633610034565b50610020336100aa565b50604051613252908161013e8239f35b5f80fd5b6001600160a01b0381165f9081525f5160206133d05f395f51905f52602052604090205460ff166100a5576001600160a01b03165f8181525f5160206133d05f395f51905f5260205260408120805460ff191660011790553391905f5160206133905f395f51905f528180a4600190565b505f90565b6001600160a01b0381165f9081525f5160206133b05f395f51905f52602052604090205460ff166100a5576001600160a01b03165f8181525f5160206133b05f395f51905f5260205260408120805460ff191660011790553391907fa49807205ce4d355092ef5a8a18f56e8913cf4a201fbe287825b095693c21775905f5160206133905f395f51905f529080a460019056fe6080806040526004361015610092575b50361561001a575f80fd5b335f52600560205260405f205f805260205261003e600160405f2001543490612a85565b335f52600560205260405f205f8052602052600160405f2001556040517fdf4dcf17030d087ed1d90ed3c90719c7260706c1c4a88505dd2d0a982887cf4360408201913481525f60208201528033930390a2005b5f3560e01c90816301ffc9a7146126e357508063091528a814612335578063142b3b80146122d1578063248a9ca3146122a75780632f2ff15d1461226a5780632f4e534914611f7b578063338b5dea14611e5457806336568abe14611e105780633f4ba83a14611dba57806343f83efc14611d4d57806345f2d10514611cfa5780634a8c569b14611cfa57806351bd551f14611c0e5780635c975abb14611bec5780635df0782114611b145780636382d9ad1461179d57806366447aa91461171957806369cbca18146113dd57806372c16a24146113a357806373e2ec5a1461131157806375b238fc146112d75780638456cb591461127e57806385a4f0c61461119b5780638b43d5d11461102057806391d1485414610fd8578063a217fddf14610fbe578063a734f06e14610fbe578063ac17884414610cf4578063b7728efe14610bf4578063d096245714610b2d578063d547741f14610ae9578063d85bf0d514610a93578063db850a4a14610933578063f4a814fd14610916578063f578c3ed146102705763f6326fb31461022a575f61000f565b5f36600319011261026c5761023d612f82565b610248341515612d11565b335f52600560205260405f205f805260205261003e60405f20600134910154612a85565b5f80fd5b3461026c5760c036600319011261026c57610289612736565b602435906001600160401b03821161026c573660238301121561026c5781600401356102b4816129c3565b926102c2604051948561278e565b8184526024602085019260051b8201019036821161026c5760248101925b8284106108e75760443585876001600160401b03831161026c573660238401121561026c57826004013592610314846129c3565b93610322604051958661278e565b8085526024602086019160051b8301019136831161026c57602401905b8282106108d7575050506064356001600160401b03811161026c576103689036906004016129da565b926084356001600160401b03811161026c576103889036906004016129da565b60a435906001600160401b03821161026c573660238301121561026c5781600401356103b3816129c3565b926103c1604051948561278e565b8184526024602085019260051b8201019036821161026c5760248101925b82841061089757505050506103f2612f62565b6103fa612f82565b6104078451845114612f1e565b6104148451875114612f1e565b6104218451825114612f1e565b61042e8451835114612f1e565b6001600160a01b0385163381149590945f5b815181101561089157878815610845575b801561080e575b61046190612a48565b61046b8183612d5d565b5190816104788289612d5d565b516001600160a01b0361048b848e612d5d565b51166001600160a01b0361049f858a612d5d565b5116906104ac858b612d5d565b518c5f5260036020526104e260ff600460405f2060206040518092828c519c019b808d845e820190815203019020015416612c74565b8c5f52600360205260ff600460405f20602060405180928c51808c845e820190815203019020015460081c16156107d4576105298461052289868d612e6e565b1015612e22565b610534841515612cb8565b61053f821515612d71565b8c5f52600360205260405f20602060405180928a51808a845e820190815203019020600381019586549662278d0088018098116107c0578f97421015610776575b5060028201548061071a575b506001820161059c878254612a85565b905584610614575092600197926105e75f808895886105cd5f5160206131fd5f395f51905f529b6105fb9b54612d04565b905560208151910187865af16105e1612db1565b50612de0565b60405194859460808652608086019061281e565b926020850152604084015260608301520390a201610440565b9050855f52600560205260405f2060018060a01b0385165f526020526106548560405f20602060405180928d518088845e82019081520301902054612d04565b90865f52600560205260405f2060018060a01b0386165f52602052602060405f20916040519283918c518091845e82019081520301902055610697848385613168565b805190816106be575b5050945f5160206131fd5f395f51905f52926105fb926001976105e7565b5f929394955090602083920182855af16106d6612db1565b50156106e757908a92918e806106a0565b60405162461bcd60e51b815260206004820152600b60248201526a10d85b1b0819985a5b195960aa1b6044820152606490fd5b90965061072b866001840154612a85565b11610738578d955f61058c565b60405162461bcd60e51b8152602060048201526016602482015275135bdb9d1a1b1e481b1a5b5a5d08195e18d95959195960521b6044820152606490fd5b5f6001840155429055867f48a7cae487aff3cf6daa7e2717d471ebd3aaf099c2a333220974d499cecd6a0260405160208152806107b78d602083019061281e565b0390a25f610580565b634e487b7160e01b5f52601160045260245ffd5b60405162461bcd60e51b81526020600482015260126024820152714275636b657420697320696e61637469766560701b6044820152606490fd5b50335f9081527f7d7ffb7a348e1c6a02869081a26547b49160dd3df72d1d75a570eb9b698292ec602052604090205460ff16610458565b50865f526003602052600660208060405f206108618587612d5d565b5190604051938285935191829101845e820190815203019020335f9081529101602052604090205460ff16610451565b60018055005b83356001600160401b03811161026c5782013660438201121561026c576020916108cc839236906044602482013591016127ca565b8152019301926103df565b813581526020918201910161033f565b83356001600160401b03811161026c5760209161090b839260243691870101612800565b8152019301926102e0565b3461026c575f36600319011261026c57602060405162278d008152f35b3461026c5761094136612982565b90335f52600360205260405f209161097860ff600460405160208187519882890199808b845e820190815203019020015416612c74565b6001600160a01b0316918215610a4e57338314610a0957600690335f526003602052602060405f209160405192839186518091845e82019081520301902001825f5260205260405f20600160ff198254161790557f5445f29a802bfabd877ef3e612e6cbf11f61ed37b0d1881dd83277d2643392946040516020815280610a043394602083019061281e565b0390a3005b60405162461bcd60e51b815260206004820152601760248201527f43616e6e6f742064656c656761746520746f2073656c660000000000000000006044820152606490fd5b60405162461bcd60e51b815260206004820152601860248201527f496e76616c69642064656c6567617465206164647265737300000000000000006044820152606490fd5b3461026c57606036600319011261026c57610aac612736565b610ab461274c565b90604435906001600160401b03821161026c57602092610adb610ae1933690600401612800565b91612e6e565b604051908152f35b3461026c57604036600319011261026c57610b2b600435610b0861274c565b90610b26610b21825f525f602052600160405f20015490565b61300c565b6130cc565b005b3461026c57610b3b36612982565b90335f526003602052600660405f20610b7360ff6004604051602081885196828a01978089845e820190815203019020015416612c74565b335f526003602052602060405f209160405192839186518091845e8201908152030190200160018060a01b0383165f5260205260405f2060ff1981541690557f5fd090e6ffe52b190bc83ab8daf49a555b610b4d87c152ad0aa8f6b1ce134e76604051926020845260018060a01b03169280610a043394602083019061281e565b3461026c57606036600319011261026c576004356001600160401b03811161026c57610c24903690600401612800565b602435906044359081151580920361026c577fa7083a0250abce15186cd07885aba3f71396cfd7d899d87141aedd48c5a27cbd91335f526003602052600460405f20610c8e60ff83604051602081895196828b01978089845e820190815203019020015416612c74565b335f526003602052602060405f209160405192839187518091845e82019081520301902085600282015501805461ff008360081b169061ff001916179055610ce16040519260608452606084019061281e565b93602083015260408201528033930390a2005b3461026c57608036600319011261026c576004356001600160401b03811161026c57610d24903690600401612800565b6024356001600160401b03811161026c57610d647f8cd6167d21bbc19a0781a8c30d96d83c0b4fe5441f7f5367cfa5dfcb0de5966e913690600401612800565b9160443592610eda610d74612778565b91335f52600360205260405f2092610dab60ff60046040516020818a5199828c019a808c845e820190815203019020015416612c74565b335f52600360205260405f2090610de160ff6004604051602081885197828a0198808a845e820190815203019020015416612c74565b610df088610522888433612e6e565b610df8612f82565b610e03881515612cb8565b6001600160a01b03169384610eed57335f526003602052610e3e8860405f20602060405180928b518088845e82019081520301902054612d04565b90335f526003602052602060405f20916040519283918a518091845e82019081520301902055335f526003602052610e908760405f206020604051809287518088845e82019081520301902054612a85565b90335f526003602052602060405f209160405192839186518091845e820190815203019020555b610ecc6040519460808652608086019061281e565b90848203602086015261281e565b93604083015260608201528033930390a2005b335f52600560205260405f20855f52602052610f238860405f20602060405180928b518088845e82019081520301902054612d04565b90335f52600560205260405f20865f52602052602060405f20916040519283918a518091845e82019081520301902055335f52600560205260405f20845f52602052610f898760405f206020604051809287518088845e82019081520301902054612a85565b90335f52600560205260405f20855f52602052602060405f209160405192839186518091845e82019081520301902055610eb7565b3461026c575f36600319011261026c5760206040515f8152f35b3461026c57604036600319011261026c57610ff161274c565b6004355f525f60205260405f209060018060a01b03165f52602052602060ff60405f2054166040519015158152f35b3461026c57606036600319011261026c57611039612736565b60243590611045612762565b61104d612f62565b611055612f82565b611060831515612cb8565b6001600160a01b031690611075821515612d71565b335f52600560205260405f2060018060a01b0382165f5260205282600160405f2001541061115757335f52600560205260405f2060018060a01b0382165f526020526110c883600160405f200154612d04565b335f9081526005602090815260408083206001600160a01b03959095168084529490915290206001015591826111475761110b5f80808085875af16105e1612db1565b604051928352602083015260408201527f15f1555d081a538ac06f26daf118fee2d94da815ffd1bf630ab7fdb30325e92160603392a260018055005b611152818385613168565b61110b565b606460405162461bcd60e51b815260206004820152602060248201527f496e73756666696369656e7420756e616c6c6f63617465642062616c616e63656044820152fd5b3461026c57602036600319011261026c576001600160a01b036111bc612736565b165f52600460205260405f208054906111d4826129c3565b916111e2604051938461278e565b8083526020830180925f5260205f205f915b83831061126157848660405191829160208301906020845251809152604083019060408160051b85010192915f905b82821061123257505050500390f35b919360019193955060206112518192603f198a8203018652885161281e565b9601920192018594939192611223565b600160208192611270856128a3565b8152019201920191906111f4565b3461026c575f36600319011261026c57611296612f9d565b61129e612f82565b600160ff1960025416176002557f62e78cea01bee320cd4e420270b5ea74000d11b0c9f74754ebdbfc544b05a2586020604051338152a1005b3461026c575f36600319011261026c5760206040517fa49807205ce4d355092ef5a8a18f56e8913cf4a201fbe287825b095693c217758152f35b3461026c57606036600319011261026c5761132a612736565b6024356001600160401b03811161026c5760208061134e6006933690600401612800565b611356612762565b9460018060a01b03165f526003825260405f20604051938285935191829101845e820190815203019020019060018060a01b03165f52602052602060ff60405f2054166040519015158152f35b3461026c575f36600319011261026c5760206040517f7434c6f201a551bfd17336985361933e0c4935b520dac8a49d937b325f7d5c0a8152f35b3461026c57604036600319011261026c576004356001600160401b03811161026c5761140d903690600401612800565b602435611418612f82565b335f52600360205260405f2060ff6004604051602081875195828901968088845e8201908152030190200154166116dc5782511561169757602083511161165b57600490335f526003602052602060405f209160405192839187518091845e8201908152030190208260028201554260038201550161010161ffff19825416179055335f52600460205260405f20805468010000000000000000811015611634576114c891600182018155612842565b929092611648578051926001600160401b038411611634576114ea815461286b565b601f81116115ef575b50602093601f811160011461156e57807faa0412a621f43eaa6351d59b17fc8854de9a6d9a67a664d3ea56dd039354728894955f91611563575b508160011b915f199060031b1c19161790555b6115556040519160408352604083019061281e565b9260208201528033930390a2005b90508301518661152d565b601f198116825f52855f20905f5b8181106115d75750907faa0412a621f43eaa6351d59b17fc8854de9a6d9a67a664d3ea56dd039354728895968360019493106115bf575b5050811b019055611540565b8501515f1960f88460031b161c1916905586806115b3565b8588015183556020978801976001909301920161157c565b815f5260205f20601f860160051c8101916020871061162a575b601f0160051c01905b81811061161f57506114f3565b5f8155600101611612565b9091508190611609565b634e487b7160e01b5f52604160045260245ffd5b634e487b7160e01b5f525f60045260245ffd5b60405162461bcd60e51b81526020600482015260146024820152734275636b6574206e616d6520746f6f206c6f6e6760601b6044820152606490fd5b60405162461bcd60e51b815260206004820152601b60248201527f4275636b6574206e616d652063616e6e6f7420626520656d70747900000000006044820152606490fd5b60405162461bcd60e51b81526020600482015260156024820152744275636b657420616c72656164792065786973747360581b6044820152606490fd5b3461026c5760c060208061172c36612943565b9060018060a01b03165f526003825260405f20604051938285935191829101845e82019081520301902060ff815491600181015490600281015460046003830154920154926040519586526020860152604085015260608401528181161515608084015260081c16151560a0820152f35b3461026c57604036600319011261026c576117b6612736565b6117be61274c565b906117c7612f9d565b6117cf61314c565b6117d7612f62565b6001600160a01b03821680611993575060018060a01b031690815f52600560205260405f205f8052602052600160405f200154825f52600460205260405f20908154611822816129c3565b92611830604051948561278e565b81845260208401905f5260205f205f915b83831061197657505050505f905b82518210156118d357611897600191865f52600360205260208060405f206118778789612d5d565b5190604051938285935191829101845e8201908152030190205490612a85565b91855f5260036020525f602080604083206118b28589612d5d565b5190604051938285935191829101845e82019081520301902055019061184f565b915050825f52600560205260405f205f80526020525f600160408220015580158015611904575b5050505060018055005b81845f9261196c575b5f92839283928392f11561196157604080516001600160a01b0393909316835260208301919091527ff24ef89f38eadc1bde50701ad6e4d6d11a2dc24f7cf834a486991f388332850491a2808080806118fa565b6040513d5f823e3d90fd5b6108fc925061190d565b600160208192611985856128a3565b815201920192019190611841565b9160018060a01b03821692835f52600560205260405f20815f52602052600160405f200154845f52600460205260405f209283546119d0816129c3565b946119de604051968761278e565b81865260208601905f5260205f205f915b838310611af757505050505f915b8451831015611a7557611a2f600191885f52600560205260405f20865f5260205260208060405f20611877888b612d5d565b92875f52600560205260405f20855f526020525f60208060408320611a54858b612d5d565b5190604051938285935191829101845e8201908152030190205501916119fd565b935091939050845f52600560205260405f20845f526020525f600160408220015582611aa6575b5050505050610891565b82611ad2917ff24ef89f38eadc1bde50701ad6e4d6d11a2dc24f7cf834a486991f388332850495613168565b604080516001600160a01b039290921682526020820192909252a28080808080611a9c565b600160208192611b06856128a3565b8152019201920191906119ef565b3461026c576020611b2436612943565b919060018060a01b031691825f526003825260405f2092611b6360ff600460405186818751998289019a808c845e820190815203019020015416612c74565b5f526003825260405f20604051938492518091845e82019081520301902060038101549062278d0082018092116107c05760a09142811115611be457611baa904290612d04565b905b80549160018201549160ff6004600283015492015460081c169260405194855260208501526040840152606083015215156080820152f35b505f90611bac565b3461026c575f36600319011261026c57602060ff600254166040519015158152f35b3461026c57604036600319011261026c57611c27612736565b611c2f61274c565b60018060a01b03821691825f52600560205260405f2060018060a01b0383165f52602052600160405f200154925f52600460205260405f20918254611c73816129c3565b93611c81604051958661278e565b81855260208501905f5260205f205f915b838310611cdd57505050505f935b8351851015611cd257611cca600191611cc4611cbc8888612d5d565b518587612e6e565b90612a85565b940193611ca0565b602090604051908152f35b600160208192611cec856128a3565b815201920192019190611c92565b3461026c57604036600319011261026c576020610ae1611d18612736565b611d2061274c565b9060018060a01b03165f52600560205260405f209060018060a01b03165f52602052600160405f20015490565b3461026c57604036600319011261026c57611d66612736565b6001600160a01b03165f90815260046020526040902080546024359081101561026c57611d9291612842565b61164857611da2611db6916128a3565b60405191829160208352602083019061281e565b0390f35b3461026c575f36600319011261026c57611dd2612f9d565b611dda61314c565b60ff19600254166002557f5db9ee0a495bf2e6ff9c91a7834c1ba4fdd244a5e8aa4e537bd38aeae4b073aa6020604051338152a1005b3461026c57604036600319011261026c57611e2961274c565b336001600160a01b03821603611e4557610b2b906004356130cc565b63334bd91960e11b5f5260045ffd5b3461026c57604036600319011261026c57611e6d612736565b60243590611e79612f82565b6001600160a01b03168015611f3d57611e93821515612d11565b611ecd6040516323b872dd60e01b602082015233602482015230604482015283606482015260648152611ec760848261278e565b826131a4565b335f52600560205260405f20815f52602052611ef082600160405f200154612a85565b335f52600560205260405f20825f52602052600160405f20015560405191825260208201527fdf4dcf17030d087ed1d90ed3c90719c7260706c1c4a88505dd2d0a982887cf4360403392a2005b60405162461bcd60e51b81526020600482015260166024820152750aae6ca40c8cae0dee6d2e88aa89040ccdee4408aa8960531b6044820152606490fd5b3461026c57606036600319011261026c576004356001600160401b03811161026c57611fab903690600401612800565b60243590611fb7612762565b90335f52600360205260405f2091611fee60ff600460405160208187519882890199808b845e820190815203019020015416612c74565b611ff6612f82565b612001841515612cb8565b6001600160a01b03168061213b57335f52600560205260405f205f805260205283600160405f200154106120f6577fd01299d91bb93f9fb900d04f6f15e1f37e590d4532e624fdd034ca96067e732192335f52600560205260405f205f805260205261207485600160405f200154612d04565b335f52600560205260405f205f8052602052600160405f200155335f5260036020526120ba8560405f206020604051809288518088845e82019081520301902054612a85565b90335f526003602052602060405f209160405192839187518091845e820190815203019020555b610ce16040519260608452606084019061281e565b60405162461bcd60e51b815260206004820152601c60248201527f496e73756666696369656e7420756e616c6c6f636174656420455448000000006044820152606490fd5b335f52600560205260405f20815f5260205283600160405f20015410612225577fd01299d91bb93f9fb900d04f6f15e1f37e590d4532e624fdd034ca96067e732192335f52600560205260405f20825f526020526121a085600160405f200154612d04565b335f52600560205260405f20835f52602052600160405f200155335f52600560205260405f20825f526020526121f08560405f206020604051809288518088845e82019081520301902054612a85565b90335f52600560205260405f20835f52602052602060405f209160405192839187518091845e820190815203019020556120e1565b60405162461bcd60e51b815260206004820152601f60248201527f496e73756666696369656e7420756e616c6c6f636174656420746f6b656e73006044820152606490fd5b3461026c57604036600319011261026c57610b2b60043561228961274c565b906122a2610b21825f525f602052600160405f20015490565b613044565b3461026c57602036600319011261026c576020610ae16004355f525f602052600160405f20015490565b3461026c57606036600319011261026c576122ea612736565b602435906001600160401b03821161026c5761230d612316923690600401612800565b60443591612a92565b90611db66040519283921515835260406020840152604083019061281e565b3461026c5760c036600319011261026c5761234e612736565b6024356001600160401b03811161026c5761236d903690600401612800565b906044359161237a612778565b608435936001600160a01b0385169390919084860361026c5760a435916001600160401b03831161026c573660238401121561026c578260040135966001600160401b03881161026c57366024898601011161026c5761241486946123dd612f62565b6123e5612f82565b6001600160a01b03851699338b1480156126a3575b801561266c575b61240a90612a48565b60243692016127ca565b92885f52600360205261244a60ff600460405f2060206040518092828c519c019b808d845e820190815203019020015416612c74565b885f52600360205260ff600460405f20602060405180928c51808c845e820190815203019020015460081c16156107d4576105228761248a938893612e6e565b612495841515612cb8565b6001600160a01b0316916124aa831515612d71565b865f52600360205260405f206020604051809288518086845e8201908152030190209060038201805462278d0081018091116107c057421015612623575b5060028201548061260a575b5060018201612504868254612a85565b90558661254c5750916105e75f805f5160206131fd5f395f51905f529894866105cd896125339b9a9954612d04565b926020850152604084015260608301520390a260018055005b9050865f52600560205260405f20865f526020526125848460405f20602060405180928a518088845e82019081520301902054612d04565b90875f52600560205260405f20875f52602052602060405f209160405192839189518091845e820190815203019020556125bf838387613168565b805190816125e4575b5050905f5160206131fd5f395f51905f529361253393926105e7565b5f9160208392969594960182875af16125fb612db1565b50156106e757909185806125c8565b612618866001850154612a85565b1161073857886124f4565b5f6001840155429055877f48a7cae487aff3cf6daa7e2717d471ebd3aaf099c2a333220974d499cecd6a026040516020815280612663602082018b61281e565b0390a2886124e8565b50335f9081527f7d7ffb7a348e1c6a02869081a26547b49160dd3df72d1d75a570eb9b698292ec602052604090205460ff16612401565b508a5f526003602052600660405f2060206040518092828c805191829101845e820190815203019020335f9081529101602052604090205460ff166123fa565b3461026c57602036600319011261026c576004359063ffffffff60e01b821680920361026c57602091637965db0b60e01b8114908115612725575b5015158152f35b6301ffc9a760e01b1490508361271e565b600435906001600160a01b038216820361026c57565b602435906001600160a01b038216820361026c57565b604435906001600160a01b038216820361026c57565b606435906001600160a01b038216820361026c57565b90601f801991011681019081106001600160401b0382111761163457604052565b6001600160401b03811161163457601f01601f191660200190565b9291926127d6826127af565b916127e4604051938461278e565b82948184528183011161026c578281602093845f960137010152565b9080601f8301121561026c5781602061281b933591016127ca565b90565b805180835260209291819084018484015e5f828201840152601f01601f1916010190565b8054821015612857575f5260205f2001905f90565b634e487b7160e01b5f52603260045260245ffd5b90600182811c92168015612899575b602083101461288557565b634e487b7160e01b5f52602260045260245ffd5b91607f169161287a565b9060405191825f8254926128b68461286b565b808452936001811690811561292157506001146128dd575b506128db9250038361278e565b565b90505f9291925260205f20905f915b8183106129055750509060206128db928201015f6128ce565b60209193508060019154838589010152019101909184926128ec565b9050602092506128db94915060ff191682840152151560051b8201015f6128ce565b90604060031983011261026c576004356001600160a01b038116810361026c5791602435906001600160401b03821161026c5761281b91600401612800565b604060031982011261026c57600435906001600160401b03821161026c576129ac91600401612800565b906024356001600160a01b038116810361026c5790565b6001600160401b0381116116345760051b60200190565b9080601f8301121561026c578135906129f2826129c3565b92612a00604051948561278e565b82845260208085019360051b82010191821161026c57602001915b818310612a285750505090565b82356001600160a01b038116810361026c57815260209283019201612a1b565b15612a4f57565b60405162461bcd60e51b815260206004820152600e60248201526d139bdd08185d5d1a1bdc9a5e995960921b6044820152606490fd5b919082018092116107c057565b60018060a01b0316805f52600360205260405f209160ff600460405160208185519782870198808a845e82019081520301902001541615612c3b57815f52600360205260ff600460405f20602060405180928651808a845e820190815203019020015460081c1615612c05576020915f526003825260405f20604051938492518091845e82019081520301902081815410612bc65760028101549182612b4d575b505050600190604051612b4760208261278e565b5f815290565b600360018301549201549162278d0083018093116107c057612b7592421015612bbf57612a85565b11612b82575f8080612b33565b5f90604051612b9260408261278e565b601a81527f576f756c6420657863656564206d6f6e74686c79206c696d6974000000000000602082015290565b505f612a85565b50505f90604051612bd860408261278e565b601b81527f496e73756666696369656e74206275636b65742062616c616e63650000000000602082015290565b505050505f90604051612c1960408261278e565b60128152714275636b657420697320696e61637469766560701b602082015290565b505050505f90604051612c4f60408261278e565b6015815274109d58dad95d08191bd95cc81b9bdd08195e1a5cdd605a1b602082015290565b15612c7b57565b60405162461bcd60e51b8152602060048201526015602482015274109d58dad95d08191bd95cc81b9bdd08195e1a5cdd605a1b6044820152606490fd5b15612cbf57565b60405162461bcd60e51b815260206004820152601d60248201527f416d6f756e74206d7573742062652067726561746572207468616e20300000006044820152606490fd5b919082039182116107c057565b15612d1857565b60405162461bcd60e51b815260206004820152601860248201527f4d757374206465706f736974206d6f7265207468616e203000000000000000006044820152606490fd5b80518210156128575760209160051b010190565b15612d7857565b60405162461bcd60e51b8152602060048201526011602482015270125b9d985b1a59081c9958da5c1a595b9d607a1b6044820152606490fd5b3d15612ddb573d90612dc2826127af565b91612dd0604051938461278e565b82523d5f602084013e565b606090565b15612de757565b60405162461bcd60e51b8152602060048201526013602482015272115512081d1c985b9cd9995c8819985a5b1959606a1b6044820152606490fd5b15612e2957565b60405162461bcd60e51b815260206004820152601b60248201527f496e73756666696369656e74206275636b65742062616c616e636500000000006044820152606490fd5b91909160018060a01b031690815f52600360205260405f209260ff600460405160208186519882880199808b845e82019081520301902001541615612f16576020926001600160a01b03821615612ef2575f526005835260405f209060018060a01b03165f52825260405f20604051938492518091845e8201908152030190205490565b90505f526003825260405f20604051938492518091845e8201908152030190205490565b505050505f90565b15612f2557565b60405162461bcd60e51b8152602060048201526015602482015274082e4e4c2f240d8cadccee8d040dad2e6dac2e8c6d605b1b6044820152606490fd5b600260015414612f73576002600155565b633ee5aeb560e01b5f5260045ffd5b60ff60025416612f8e57565b63d93c066560e01b5f5260045ffd5b335f9081527f7d7ffb7a348e1c6a02869081a26547b49160dd3df72d1d75a570eb9b698292ec602052604090205460ff1615612fd557565b63e2517d3f60e01b5f52336004527fa49807205ce4d355092ef5a8a18f56e8913cf4a201fbe287825b095693c2177560245260445ffd5b5f8181526020818152604080832033845290915290205460ff161561302e5750565b63e2517d3f60e01b5f523360045260245260445ffd5b5f818152602081815260408083206001600160a01b038616845290915290205460ff166130c6575f818152602081815260408083206001600160a01b0395909516808452949091528120805460ff19166001179055339291907f2f8788117e7eff1d82e926ec794901d17c78024a50270940304540a733656f0d9080a4600190565b50505f90565b5f818152602081815260408083206001600160a01b038616845290915290205460ff16156130c6575f818152602081815260408083206001600160a01b0395909516808452949091528120805460ff19169055339291907ff6391f5c32d9c69d2a47ea670b442974b53935d1edc7fd64eb21e047a839171b9080a4600190565b60ff600254161561315957565b638dfc202b60e01b5f5260045ffd5b60405163a9059cbb60e01b60208201526001600160a01b039290921660248301526044808301939093529181526128db916131a460648361278e565b905f602091828151910182855af115611961575f513d6131f357506001600160a01b0381163b155b6131d35750565b635274afe760e01b5f9081526001600160a01b0391909116600452602490fd5b600114156131cc56fe21a8971d7f2f4d99234fe6ef84f11cd52662cd77cbf3af7a75d489f494466b7ea264697066735822122056f78d8ecd5ff8219c3c90fc1712375c10b2102206a511ea2cc27463229977fd64736f6c634300081c00332f8788117e7eff1d82e926ec794901d17c78024a50270940304540a733656f0d7d7ffb7a348e1c6a02869081a26547b49160dd3df72d1d75a570eb9b698292ecad3228b676f7d3cd4284a5443f17f1962b36e491b30a40b2405849e597ba5fb5a264697066735822122039fa064ac3dd080056fea845e230a99000a702ec7b7934324752d12eaa12592064736f6c634300081c0033","linkReferences":{}},"methodIdentifiers":{"ENTRY_POINT()":"94430fa5","allWallets(uint256)":"8cf8350f","createWallet()":"11ebbf24","createWallet(address)":"b054a9e8","createWalletDeterministic(address,uint256)":"a0915de5","createWalletDeterministic(uint256)":"619c1557","getOwner(address)":"fa544161","getStats()":"c59d4847","getUserWallet(address)":"9ad54793","getWallet(address)":"04d0a647","getWalletAddress(uint256)":"cb804eae","getWallets(uint256,uint256)":"4ce9dde5","hasWallet(address)":"80dc8b06","owner()":"8da5cb5b","registerWallet(address,address)":"96793725","renounceOwnership()":"715018a6","totalWalletsCreated()":"62a04fa3","transferOwnership(address)":"f2fde38b","userWallets(address)":"63e6ffdd","walletOwners(address)":"a8e9379a"},"id":40}